:020000040800F2
:1000000018140020E5030008ED030008EF030008C2
:10001000F1030008F3030008F503000800000000E6
:10002000000000000000000000000000B502000811
:10003000F9030008000000006D030008D103000868
:10004000FF030008FF030008FF030008FF03000888
:10005000FF030008FF030008FF030008FF03000878
:10006000FF030008FF030008FF030008FF03000868
:10007000FF030008FF030008FF030008FF03000858
:10008000FF030008FF030008FF030008FF03000848
:10009000FF030008FF030008FF030008FF03000838
:1000A000FF030008FF030008FF030008FF03000828
:1000B000FF030008FF030008FF030008FF03000818
:1000C000FF030008FF030008FF030008FF03000808
:1000D000FF030008FF030008FF030008FF030008F8
:1000E000FF030008FF030008FF030008FF030008E8
:1000F000FF030008FF030008FF030008FF030008D8
:10010000FF030008FF030008FF030008FF030008C7
:10011000FF030008FF030008FF030008FF030008B7
:10012000FF030008FF030008FF030008FF030008A7
:10013000FF030008FF030008FF030008FF03000897
:10014000FF030008FF030008FF030008FF03000887
:10015000FF030008FF030008FF030008FF03000877
:10016000FF030008FF030008FF030008FF03000867
:10017000FF030008FF030008FF0300080000000061
:10018000FF030008FF03000800F002F800F03CF84D
:100190000AA090E8000C82448344AAF10107DA45E2
:1001A00001D100F031F8AFF2090EBAE80F0013F0F8
:1001B000010F18BFFB1A43F0010318473C3D000034
:1001C0005C3D0000103A24BF78C878C1FAD85207C5
:1001D00024BF30C830C144BF04680C6070470000C1
:1001E0000023002400250026103A28BF78C1FBD840
:1001F000520728BF30C148BF0B6070471FB503F0DE
:1002000015FE1FBD10B510BD00F022F91146FFF715
:10021000F5FF0FB400F00CF80FBC02F0E3FB00F0A8
:1002200005F903B4FFF7EEFF03BC00F00BF9000083
:1002300004B002F01BFC0448002102F08FFC02F025
:1002400027FC00F0F3F800003C00002080F3098850
:100250007047EFF309807047684680F309880448C7
:100260000078C00714BF0220032080F31488704771
:10027000A03E0008DFF818C0EFF305831B0618BF87
:100280006047EFF31483DB0708BF604700DF704768
:10029000472C0008DFF818C0EFF305831B0618BFD2
:1002A0006047EFF31483DB0708BF604700DF704748
:1002B000E12E0008EFF30980816911F8021CE1BB0F
:1002C00090E80F1010B5E047BDE81040EFF3098C3F
:1002D0008CE80700214B93E80600914208BF704765
:1002E00041B91EF0100F16D11D49086820F0010019
:1002F000086010E01EF0100F06BF2CED108A0120E0
:10030000002081F825002CE9F00FC1F828C00CB4BA
:1003100003F09AF90CBC1A60D2F828C0BCE8F00FC0
:1003200092F8250000280EBF6FF0020E6FF0120E3B
:10033000BCEC108A8CF30988704710B5094A126822
:10034000914209D8084C54F8214090E80F10A0477A
:10035000EFF3098C8CE80F0010BD00006400002052
:1003600034EF00E09C0400089C04000810B503F082
:100370002FF8BDE81040154B93E80600914208BFE6
:100380007047EFF3098C1EF0100F06BF2CED108A9A
:100390000120002081F825002CE9F00FC1F828C0C9
:1003A0000CB403F051F90CBC1A60D2F828C0BCE8B8
:1003B000F00F92F8250000280EBF6FF0020E6FF0CC
:1003C000120EBCEC108A8CF3098870476400002080
:1003D00010B503F001FACCE710B502F033FC03F0DE
:1003E000FBF9C6E70948804709480047FEE7FEE7F2
:1003F000FEE7FEE7FEE7FEE7FEE7FEE7FEE7FEE7D5
:1004000004480549054A064B70470000E9260008E4
:1004100089010008180E0020181400201810002070
:100420001810002000487047B40D002010B5044695
:10043000AFF300802046BDE81040FFF7F2BE7047E2
:100440007047704701491820ABBEFEE72600020046
:100450007546FFF7E7FFAE4605006946534620F0B4
:100460000700854618B020B5FFF7CAFFBDE8204059
:100470004FF000064FF000074FF000084FF0000B60
:1004800021F00701AC46ACE8C009ACE8C009ACE813
:10049000C009ACE8C0098D467047704700000000F5
:1004A000012804D101228A40044B1A6005E001F1C1
:1004B000100201239340014A13607047180C024058
:1004C0000EB501211948006802F024FB2DE04FF021
:1004D000FF31012002F036FB8DE8070001211348AF
:1004E000006802F023FB1248017812480078FFF7F9
:1004F000D7FF4FF4FA7002F0ADFA0D4801780E48BC
:100500000078FFF7CDFF4FF4FA7002F0A3FA4FF036
:10051000FF31012002F016FB8DE80700012103489E
:10052000006802F003FB02F03DFBD0E71C00002056
:10053000100000200C0000200D0000206FE0384863
:10054000006900F00100002849D036480068002802
:1005500045D101213448006802F0DCFA012031491C
:1005600008603248017832480078FFF799FF314837
:1005700001782F480078FFF793FF2F4801782C4827
:100580000078FFF78DFF2D48017829480078FFF7A4
:1005900087FF4FF47A7002F05DFA2448017828480A
:1005A0000078FFF77DFF2348017825480078FFF7A2
:1005B00077FF2148017822480078FFF771FF1F4834
:1005C00001781F480078FFF76BFF01211D48006884
:1005D00002F0ACFA01211C48006802F0A7FA1048AA
:1005E000006900F00100C0B10E480068012814D174
:1005F00001211448006802F08DFA012112480068B8
:1006000002F088FAC82002F025FA002005490860A7
:1006100001210548006802F089FA02F0C3FA8EE76A
:1006200000000240140000201800002010000020EC
:100630000C000020110000200E0000200F00002000
:100640000D0000201C00002024000020F8B5024608
:100650000B460025002400200021D6E0012606FAE2
:1006600001F51E6806EA0504AC4274D11E7906F055
:100670000306012E04D01E7906F00306022E13D1C4
:1006800090684F000326BE40B0434F00DE68BE4076
:1006900030439060506801268E40B0431E79C6F307
:1006A00000168E40304350601E7906F00306032E7C
:1006B00009D0D0684F000326BE40B0434F009E686B
:1006C000BE403043D0601E7906F00306022E13D1DF
:1006D000CF0802F1200656F827004E07F70E0F2626
:1006E000BE40B0434F07FF0E1E69BE403043CF08E7
:1006F00002F1200646F8270010684F000326BE408E
:10070000B0431E7906F003064F00BE403043106030
:100710005E6806F44036002E76D000BF00260096B4
:100720003C4E366846F480463A4F3E603E46366858
:1007300006F48046009600BF00BF374E8F0856F87B
:1007400027008E07370F0F26BE40B043334EB2420C
:1007500002D1002624E057E0314EB24201D10126F9
:100760001EE0304EB24201D1022619E02E4EB242B6
:1007700001D1032614E02D4EB24201D104260FE030
:100780002B4EB24201D105260AE02A4EB24201D1D7
:10079000062605E0284EB24201D1072600E00826D1
:1007A0008F073F0FBE4030431B4E8F0846F827008F
:1007B000224E3068A0435E6806F4801606B12043DE
:1007C0001E4E3060361D3068A0435E6806F4001689
:1007D00006B12043194E361D3060184E361F306862
:1007E000A0435E6806F4003606B12043134E361F60
:1007F0003060361F3068A0435E6806F4803606B16C
:1008000020430E4E083E3060491C1029FFF426AFED
:10081000F8BD0000443802400838014000000240A2
:100820000004024000080240000C02400010024098
:100830000014024000180240001C0240083C014025
:1008400001480068704700004C00002070B5044665
:100850000CB9012070BD94F83D0028B9002084F83F
:100860003C00204600F092F9242084F83D002068E6
:10087000006820F00100216808602068006840F4EA
:100880000040216808602068006820F4004021686A
:10089000086000F027FC05465C496068884206D87D
:1008A0005B48854201D2012007E0002005E059485D
:1008B000854201D2012000E00020012800D1C9E7D3
:1008C0005548B5FBF0F62068406820F03F00304303
:1008D000216848604D496068884201D8701C07E073
:1008E0004FF4967070434FF47A71B0FBF1F0401CF6
:1008F0002168096A21F03F010843216808624349E1
:100900006068884214D8681E61684900B0FBF1F045
:10091000401CC0F30B00042801D204203DE0681EF7
:1009200061684900B0FBF1F0401CC0F30B0034E0FB
:10093000A06838B9681E616801EB4101B0FBF1F0B5
:10094000401C0AE0681E616801EBC10202EB011164
:10095000B0FBF1F0401C40F48040C0F30B0008B93C
:1009600001201AE0A06848B9681E616801EB4101E6
:10097000B0FBF1F0401CC0F30B000CE0681E616896
:1009800001EBC10202EB0111B0FBF1F0401CC0F31E
:100990000B0040F4804040F400402168C9694CF6E7
:1009A000FF72914308432168C861D4E907010843F5
:1009B0002168096821F0C001084321680860D4E972
:1009C000031008432168896848F2FF3291430843C5
:1009D00021688860D4E9050108432168C96821F0CD
:1009E000FF0108432168C8602068006840F00100EA
:1009F0002168086000202064202084F83D00002049
:100A0000206384F83E0000BF24E70000A0860100B8
:100A100080841E0000093D0040420F002DE9F8438C
:100A20000446894616461F46DDF82080FFF708FF7A
:100A3000054694F83D0020287ED119230122514912
:100A40002046009501F01CF810B10220BDE8F883A3
:100A500000BF94F83C00012801D10220F6E70120F4
:100A600084F83C0000BF2068006800F0010028B94D
:100A70002068006840F00100216808602068006874
:100A800020F4006021680860212084F83D001020D7
:100A900084F83E000020206466626785608D2085B2
:100AA0003948E0622B4642464946204600F05AFF4C
:100AB00008B10120CAE700BF00200090206840690B
:100AC000009020688069009000BF00BF44E02A4683
:100AD0004146204601F079F850B1206C042805D138
:100AE0002068006840F40070216808600120ADE7CC
:100AF000606A007821680861606A401C6062608DED
:100B0000401E6085208D401E208520684069C0F30E
:100B1000800070B1208D60B1606A00782168086142
:100B2000606A401C6062608D401E6085208D401EA2
:100B300020852A46414600E022E0204600F072FF70
:100B400050B1206C042805D12068006840F4007082
:100B500021680860012079E7208D0028B7D120683E
:100B6000006840F4007021680860202084F83D008F
:100B7000002084F83E0000BF84F83C0000BF65E719
:100B8000022063E7020010000000FFFF7047000032
:100B900010B586B004462068806805908B492068AF
:100BA000884201D18A4801E04FF0402080680490DB
:100BB00020684068039085492068884201D18448B4
:100BC00001E04FF04020406802906068B0F5007F7F
:100BD00002D0606800286FD1059800F0020002285A
:100BE00006D1039800F0800010B1204601F06EF8A5
:100BF000049800F0010030B1029800F0400010B1FC
:100C0000204601F02DF8049800F04000402832D131
:100C1000029800F0200070B36C492068884201D12E
:100C20006B4801E04FF04020406820F06000674AC8
:100C30002168914201D1664901E04FF040214860AE
:100C40002068406820F0A0002168486000BF0020B4
:100C500001902068C068019020688068019000BF02
:100C600000BF012084F84100606C40F00200606425
:100C7000204600F0B0F8059800F00800082831D1AF
:100C8000039800F0200000282CD02068406820F055
:100C9000A000216848604D492068884201D14C4835
:100CA00001E04FF04020406820F06000474A216892
:100CB000914202D1464902E015E04FF040214860E0
:100CC00000BF0020019020688068019000BF00BF35
:100CD000012084F84100606C40F00400606420460C
:100CE00000F079F870E0049800F00200022806D1C4
:100CF000029800F0800010B1204601F003F805983A
:100D000000F0010030B1039800F0400010B120461F
:100D100000F089FF059800F04000402827D1039893
:100D200000F0200018B32068406820F060002168BF
:100D3000486026492068884201D1254801E04FF0EB
:100D40004020406820F0A000204A2168914201D153
:100D50001F4901E04FF040214860012084F8410024
:100D6000606C40F002006064204600F034F80498A3
:100D700000F00800082827D1029800F0200018B3DE
:100D800012492068884201D1114801E04FF040200B
:100D9000406820F0A0000D4A2168914201D10C4921
:100DA00001E04FF0402148602068406820F060007A
:100DB00021684860012084F84100606C40F0040024
:100DC0006064204600F007F806B010BD003800400F
:100DD00000340040704770472DE9F047044614B9CD
:100DE0000120BDE8F08794F8410038B9002084F86C
:100DF000400067486063204600F0D2F8022084F883
:100E000041002068C06940F6BF7188432168C8610D
:100E1000022021680862606902283CD0E06808B9B5
:100E2000102600E02026A068202800D876000120A7
:100E300000F00AF980462069B0F5007F17D1E0681C
:100E400050B1B000B8FBF0F000EB800041006069E9
:100E5000B1FBF0F0451D13E0F000B8FBF0F000EB43
:100E6000800041006069B1FBF0F0451D08E0B8FB6F
:100E7000F6F000EB800041006069B1FBF0F0451D29
:100E80000A20B5FBF0F505F00109A5EB09004708BC
:100E90004FEA092902E002274FF00009022F01D38F
:100EA000FF2F05D9606C40F010006064012098E7C6
:100EB000206940EA0900384321680862606840F40C
:100EC0000060A1680843E1680843A16908432168FC
:100ED000C96940F6BF72914308432168C861206A1E
:100EE00001284DD12B4860632B492068884201D1ED
:100EF0002A4801E04FF04020C06940F6BF718843A6
:100F0000254A2168914201D1244901E04FF0402156
:100F1000C8610220204A2168914201D11F4901E0A5
:100F20004FF0402108621C492068884201D11B48CB
:100F300001E04FF04020C0691FFA80FA6068B0F508
:100F4000007F01D0606810B94FF4807500E0002583
:100F5000A8B240F40060218989B20843A18989B20E
:100F60000843218B89B2084340EA0A0A0A492068EB
:100F7000884201D1094801E04FF04020C0F81CA090
:100F800000206064012084F84100002029E700006F
:100F9000711D0008910B000800380040003400402B
:100FA0007047704730B5034601B10AB9012030BD22
:100FB00000BF93F84000012801D10220F7E701208B
:100FC00083F8400000BF93F84100012806D000BF1D
:100FD000002083F8400000BF0220E8E7032083F8E8
:100FE00041000020586459621868C06900F0070485
:100FF000032C01D0052C0AD14FF6FF7000EA420005
:1010000018854FF6FF7000EA4200588501E01A8506
:101010005A851868406840F0A0001D68686018682C
:10102000C06900F48060B0F5806F05D01868C069B1
:1010300040F480601D68E86100BF002083F8400034
:1010400000BF00BFB3E7704770B501460020002223
:1010500000230024012934D11B4D2D6805F4000321
:101060001BB1012B29D1194829E0174D2D1F2D68DF
:1010700005F48005B5F5800F08D1134D2D1F2D689F
:1010800005F03F05124EB6FBF5F207E00E4D2D1FA1
:101090002D6805F03F050F4EB6FBF5F20A4D7C3585
:1010A0002D68C5F3881505FB02F4074D7C352D68C6
:1010B000C5F30275B4FBF5F001E0002000BF00BFEE
:1010C00000BF00BF70BD0000083802400080BB00B8
:1010D00040787D010024F40001480068704700005A
:1010E0005800002000B5FFF7F7FF04490968C1F375
:1010F0008221034A515CC84000BD0000083802400C
:10110000EE3E000810B504460CB9012010BD606A1F
:1011100038B96068B0F5827F00D105E00021E16157
:1011200002E0002121616161A06AB0F5005F00D199
:1011300000BF94F8510028B9002084F850002046E0
:1011400000F04FF8022084F851002068006820F079
:10115000400021680860A08800F48270218901F4B1
:1011600004410843A18901F400610843217C01F096
:1011700002010843217D01F001010843218B01F4A4
:1011800000710843217F01F0380108432021095DE7
:1011900001F080010843218D01F4005108432168CA
:1011A00008600421A06901EA104094F8241001F0BD
:1011B0001001084321684860A06AB0F5005F03D1C0
:1011C000A08D80B2216808612068C06920F40060A9
:1011D0002168C86100206065012084F8510000206A
:1011E00094E770472DE9FC470446884617461D469C
:1011F0000020019081466068B0F5827F0DD1A06823
:1012000058B9042084F851003B46424641462046E6
:10121000009500F0EBF9BDE8FC8700BF94F85000A2
:10122000012801D10220F6E7012084F8500000BF18
:10123000FFF706FB064694F85100012802D04FF054
:101240000209D6E0B8F1000F00D017B94FF001093C
:10125000CFE0042084F8510000206065C4F8388095
:10126000A787E7872063A086E08620646064A06A81
:10127000B0F5005F10D100BF2068006820F4005076
:10128000216808602068006840F400502168086008
:1012900000BFE08F401EE087A068B0F5004F0BD183
:1012A0002068006820F0400021680860206800681D
:1012B00020F48040216808602068006800F0400049
:1012C000402805D02068006840F040002168086090
:1012D000E068F8B91AE02068806800F0010050B1B9
:1012E0002068007BA16B0870A06B401CA063E08F9E
:1012F000401EE0870AE0FFF7A3FA801BA84201D353
:10130000681C00B915B94FF0030972E0E08F00289E
:10131000E1D11EE01AE02068806800F0010050B1C1
:101320002068C068A16B0880A06B801CA063E08F60
:10133000401EE0870AE0FFF783FA801BA84201D332
:10134000681C00B915B94FF0030952E0E08F00287E
:10135000E1D1A06AB0F5005F30D12068006840F4A8
:101360008050216808602B460122114620460096D5
:1013700001F0EEF810B14FF003093AE0E068B0F583
:10138000006F04D12068C068A16B088003E020686A
:10139000007BA16B08702B46012211462046009667
:1013A00001F0D6F830B1606D40F0020060654FF09A
:1013B00003091EE02068C068019000BF324629463C
:1013C000204600F067FF08B1202060652068806833
:1013D00000F01000102807D1606D40F00200606539
:1013E0004FF6EF7021688860606D08B14FF0010919
:1013F00000BF012084F8510000BF002084F8500095
:1014000000BF484607E72DE9F84F044688461646D0
:101410001D464FF0000A00BF94F85000012802D189
:101420000220BDE8F88F012084F8500000BFFFF7CC
:1014300007FA0746B14694F85100012802D04FF050
:10144000020AC9E0B8F1000F00D016B94FF0010A46
:10145000C2E0032084F8510000206065C4F83080A9
:10146000A686E686A063A087E08760642064A06803
:10147000B0F5004F0BD12068006820F040002168D3
:1014800008602068006840F4804021680860A06A15
:10149000B0F5005F0DD100BF2068006820F4005057
:1014A000216808602068006840F4005021680860E6
:1014B00000BF2068006800F04000402805D0206888
:1014C000006840F0400021680860E068B0F5006FF7
:1014D0002FD1606810B1B9F1010F09D1206B0088DC
:1014E0002168C860206B801C2063E08E401EE0866F
:1014F0001BE02068806800F0020002280AD1206BFF
:1015000000882168C860206B801C2063E08E401E2C
:10151000E0860AE0FFF794F9C01BA84201D3681CDB
:1015200000B915B94FF0030A56E0E08E0028E0D16B
:101530002EE0606810B1B9F1010F09D1206B00787D
:1015400021680873206B401C2063E08E401EE086FB
:101550001BE02068806800F0020002280AD1206B9E
:10156000007821680873206B401C2063E08E401EC9
:10157000E0860AE0FFF764F9C01BA84201D3681CAB
:1015800000B915B94FF0030A26E0E08E0028E0D13B
:10159000A06AB0F5005F05D12068006840F4805073
:1015A000216808603A462946204600F0BDFE08B191
:1015B00020206065A06850B900BF0020009020681E
:1015C000C068009020688068009000BF00BF606D18
:1015D00008B14FF0010A00BF012084F8510000BF9C
:1015E000002084F8500000BF50461AE72DE9F04F64
:1015F00085B00446884691461D460E9E0020039005
:10160000012002900020019000BF94F850000128B2
:1016100003D1022005B0BDE8F08F012084F850000E
:1016200000BFFFF70DF9074694F851B060680490C9
:10163000AA46BBF1010F0BD00498B0F5827F04D10C
:10164000A06810B9BBF1040F02D0022001902CE178
:10165000B8F1000F03D0B9F1000F00D015B9012087
:10166000019022E194F85100042802D0052084F86A
:10167000510000206065C4F83890E587A587C4F85C
:101680003080E586A58620646064A06AB0F5005FBE
:101690000DD100BF2068006820F400502168086068
:1016A0002068006840F400502168086000BF20688E
:1016B000006800F04000402805D02068006840F035
:1016C000400021680860E068B0F5006F56D160689E
:1016D00010B1BAF1010F09D1206B00882168C860F0
:1016E000206B801C2063E08E401EE0863FE0206877
:1016F000806800F0020002281CD1E08ED0B1029870
:10170000012817D1206B00882168C860206B801CDD
:101710002063E08E401EE08600200290E08E48B9F3
:10172000A06AB0F5005F05D12068006840F48050E1
:10173000216808602068806800F0010068B1E08FCF
:1017400058B12068C068A16B0880A06B801CA063A2
:10175000E08F401EE08701200290FFF771F8C01B68
:10176000B04204D3701C10B1032001909DE0E08EC4
:101770000028BCD1E08F0028B9D156E0606810B1D4
:10178000BAF1010F09D1206B007821680873206B32
:10179000401C2063E08E401EE08640E020688068A8
:1017A00000F0020002281CD1E08ED0B1029801287E
:1017B00017D1206B007821680873206B401C2063D0
:1017C000E08E401EE08600200290E08E48B9A06ABC
:1017D000B0F5005F05D12068006840F480502168B2
:1017E00008602068806800F0010068B1E08F58B19F
:1017F0002068C068A16B0870A06B401CA063E08FDC
:10180000401EE08701200290FFF71AF8C01BB0428B
:1018100001D3701C00B916B90320019045E0E08E99
:101820000028BBD1E08F0028B8D1A06AB0F5005FD6
:1018300012D13346012211462046009700F088FE5F
:1018400030B1606D40F002006065032001902CE033
:101850002068C068039000BF2068806800F0100016
:10186000102809D1606D40F0020060654FF6EF70FE
:1018700021688860012001903A463146204600F0F8
:1018800053FD20B101200190202060650DE0A0688B
:1018900050B900BF002000902068C0680090206808
:1018A0008068009000BF00BF00BF012084F8510095
:1018B00000BF002084F8500000BF0198AAE6000095
:1018C00088B004462546154B0FCBCDE90623CDE95C
:1018D000040122E04FF0FF31012001F033F901ABA8
:1018E00007C301210E48006801F020F9082204A96D
:1018F0006868FFF757FB4FF47A7001F0ABF84FF0D0
:10190000FF31012001F01EF901AB07C3012104489A
:10191000006801F00BF901F045F9DBE7783E0008BB
:1019200024000020014608684069C0F38020B0B15F
:101930006FF480600A68506100200863202081F8FD
:101940003D00002081F83E00086C40F0040008646F
:1019500000BF002081F83C0000BF0120704700203C
:10196000FCE700002DE9F84304460D46174698466B
:10197000E66A082E04D0012E02D016F5803F06D16B
:101980002068006840F480702168086008E0206BDF
:10199000122805D12068006840F480702168086032
:1019A0003B4600224FF001112046CDF8008000F0A8
:1019B00067F860B12068006800F48070B0F5807F3F
:1019C00002D14FF4007020640320BDE8F883206941
:1019D000B0F5804F04D105F0FE002168086112E0E7
:1019E00005F44070F02141EAE010216808614346A7
:1019F0003A460B49204600F086F808B10120E4E79A
:101A0000E8B22168086143463A460549891F2046E5
:101A100000F079F808B10120D7E70020D5E70000F1
:101A20000800010070B504460D46164620E0204629
:101A3000FFF778FF08B1012070BD681CC0B1FEF748
:101A4000FFFE801BA84200D895B90020206320200B
:101A500084F83D00002084F83E00206C40F0200017
:101A6000206400BF002084F83C0000BF0120E3E7B1
:101A700020684069C0F380000028D8D00020DBE750
:101A80002DE9F04104460D4617461E46DDF8188044
:101A90001CE0701CD0B1FEF7D3FEA0EB0800B042F2
:101AA00000D89EB900202063202084F83D0000204B
:101AB00084F83E00206C40F02000206400BF00202D
:101AC00084F83C0000BF0120BDE8F081C5F3074069
:101AD00001280AD120684069A9B20840A9B2884209
:101AE00001D101200BE0002009E020688069A9B243
:101AF0000840A9B2884201D1012000E00020B8428C
:101B0000C7D00020E0E72DE9F04104460D46164617
:101B10001F463DE020684069C0F38020E8B120689E
:101B2000006840F40070216808606FF480602168EC
:101B3000486100202063202084F83D00002084F8C4
:101B40003E00206C40F00400206400BF002084F8B8
:101B50003C0000BF0120BDE8F081701CC0B1FEF761
:101B60006FFEC01BB04200D896B900202063202031
:101B700084F83D00002084F83E00206C40F02000F6
:101B8000206400BF002084F83C0000BF0120E2E791
:101B9000C5F3074001280AD120684069A9B208406E
:101BA000A9B2884201D101200BE0002009E02068A1
:101BB0008069A9B20840A9B2884201D1012000E0A1
:101BC00000200028A6D00020C5E770B504460D46C9
:101BD000164620E02046FFF7A5FE08B1012070BDA3
:101BE000681CC0B1FEF72CFE801BA84200D895B936
:101BF00000202063202084F83D00002084F83E006F
:101C0000206C40F02000206400BF002084F83C00DD
:101C100000BF0120E3E720684069C0F3C01000283E
:101C2000D8D00020DBE710B504462068C06881B238
:101C3000E26A901CE0621180608E401E6086608EB9
:101C400068B92068406820F0600021684860608DB5
:101C500028B9012084F841002046FFF7BBF810BDE9
:101C600010B5044617492068884201D1164801E0A2
:101C70004FF04020C06881B2E26A901CE06211809F
:101C8000608E401E6086608ED8B90E4920688842FA
:101C900001D10D4801E04FF04020406820F0600085
:101CA000084A2168914201D1074901E04FF04021E3
:101CB0004860608D28B9012084F841002046FFF774
:101CC00089F810BD003800400034004010B50446CB
:101CD000616A881C606208882168C860608D401E47
:101CE0006085608D68B92068406820F0A000216898
:101CF0004860608E28B9012084F841002046FFF733
:101D000069F810BD10B50446616A881C60620888D5
:101D1000154A2168914201D1144901E04FF0402158
:101D2000C860608D401E6085608DD8B90E492068FE
:101D3000884201D10D4801E04FF04020406820F07A
:101D4000A000094A2168914201D1084901E04FF001
:101D500040214860608E28B9012084F84100204667
:101D6000FFF738F810BD0000003800400034004094
:101D70001CB5044620688068019094F8410004284E
:101D800030D1019800F0010038B120684068C0F3FC
:101D9000801010B1204600F059F8019800F0400082
:101DA00040281FD120684068C0F34010D0B120689F
:101DB000406820F060002168486000BF002000906B
:101DC0002068C068009020688068009000BF00BF55
:101DD000012084F84100606C40F0020060642046FD
:101DE000FEF7F9FF94F8410003282ED1019800F086
:101DF0000200022807D120684068C0F3C01010B16B
:101E0000204600F03EF8019800F0080008281CD198
:101E100020684068C0F34010B8B12068406820F0E6
:101E2000A0002168486000BF002000902068806802
:101E3000009000BF00BF012084F84100606C40F0BA
:101E4000040060642046FEF7C6FF1CBD10B50446C2
:101E50002068C068E16A0880E06A801CE062608EE9
:101E6000401E6086608E58B92068406820F060008F
:101E700021684860012084F841002046FFF791F86E
:101E800010BD10B50446606A00882168C860606AA9
:101E9000801C6062608D401E6085608D58B920682E
:101EA000406820F0A00021684860012084F84100CB
:101EB0002046FFF7C8F810BD10B50021064800F015
:101EC0004DFE064908600846006810B94FF0FF3023
:101ED00010BD0020FCE70000483E00081C00002068
:101EE00010B50021064800F039FE06490860084692
:101EF000006810B94FF0FF3010BD0020FCE7000073
:101F0000583E00082000002010B50446214606482F
:101F100000F024FE054908600846006810B94FF03B
:101F2000FF3010BD0020FCE7683E000824000020C0
:101F300010B504462146064800F010FE0549086029
:101F40000846006810B94FF0FF3010BD0020FCE7D4
:101F5000383E00081800002003B591B073480068AF
:101F600040F008007149086010200C9001200D908D
:101F700002200F9000200E900CA96D48FEF766FB22
:101F80006A48006840F00200684908604FF4107029
:101F9000079004200B901220089002200A90002045
:101FA000099007A96348FEF751FB604810300068AC
:101FB00040F400105D49103108605F4811990860D5
:101FC0005E48119948600021119881603321119871
:101FD000C1604FF480411198016100211198416165
:101FE000119881611198C161119801621198FEF7F1
:101FF0002DFC4E48006840F004004C4908604FF446
:10200000A450029006200690022003900590002024
:10201000049002A94A48FEF719FB444810300068B2
:1020200040F4004041491031086048151299486059
:102030000021129881601298C1604FF400711298CB
:1020400001614AF644411298416100211298816170
:102050001298C161129801621298FEF7BDFE10201D
:1020600033491831086000208DF8040099208DF85C
:10207000050032200090022301AA94211198FEF756
:10208000CDFC47208DF8040080208DF8050032201B
:102090000090022301AA94211198FEF7BFFC322080
:1020A0008DF8040080208DF8050032200090022376
:1020B00001AA94211198FEF7B1FC47208DF8040085
:1020C00000208DF8050032200090022301AA9421FF
:1020D0001198FEF7A3FC00208DF804008DF8050090
:1020E00032200090022301AA94211198FEF796FC59
:1020F0001E208DF80400C0208DF8050032200090CD
:10210000022301AA94211198FEF788FC02208DF881
:1021100004009E208DF8050032200090022301AAC1
:1021200094211198FEF77AFC13B000BD30380240BC
:10213000000C02400004024000540040801A0600D7
:10214000000802401FB58AB04848006840F480503B
:102150004649086046480A9908604FF482700A9917
:1021600048604FF400710A98816100210A988160EB
:102170000A98C16002210A98016101210A9841610F
:1021800000210A98016220210A98C1610A98FEF78D
:10219000B9FF36481438006840F00100334914395B
:1021A0000860E02005900520099002200690089024
:1021B0000020079005A92F48FEF748FA2B4814384D
:1021C000006840F010002949143908600820009088
:1021D00001200190022003900120029069462648C8
:1021E000FEF734FA0820244988610A9800680068DC
:1021F00040F040000A99096808601C4814380068DB
:1022000040F008001949143908601C48006840F083
:1022100080501A4908600846006840F080700860E5
:102220000846006840F0804008600846006840F0BA
:102230008060086020200B99087080030E49886137
:10224000BDF830301A46DDE90A01FFF7DCF813204B
:102250000B990870BDF830301A46DDE90A01FFF726
:10226000D2F80820044988610EB010BD44380240FD
:10227000003001400000024000100240000C02400B
:102280000348006840F00100014908607047000001
:1022900030380240F8B504460E4615466068B0F581
:1022A000827F0DD1A068B0F5004F03D0A068B0F5D3
:1022B000806F05D12068006820F040002168086028
:1022C0006068B0F5827F1FD1A068B0F5806F0DD037
:1022D0003346002280212046009500F039F908B3EA
:1022E000606D40F0200060650320F8BD3346002299
:1022F00001212046009500F02BF998B1606D40F067
:10230000200060650320F0E73346002201212046CB
:10231000009500F01DF928B1606D40F02000606567
:102320000320E2E70020E0E77CB504460D461646B0
:10233000164800681821B0FBF1F01549B0FBF1F028
:102340004FF47A71484301906068B0F5827F0DD1F7
:102350002B46002280212046009600F0F9F898B123
:10236000606D40F02000606503207CBD00BF0198D7
:1023700000B908E00198401E019020688068C0F311
:10238000C0100028F3D100BF0020EEE75800002065
:1023900040420F000EB507463C46012164480068E4
:1023A00000F0C4FBC3E04FF0FF31012000F0CAFB96
:1023B0008DE8070001215E48006800F0B7FBA92006
:1023C000616808704FF400205A4988612289E368E7
:1023D000D4E90001FFF717F800206168087022892E
:1023E000E368D4E90001FEF7FDFE08205149886149
:1023F000606890F80090A820616808704FF4002091
:102400004C4988612289E368D4E90001FEF7FBFFAB
:102410000020616808702289E368D4E90001FEF7B2
:10242000E1FE082043498861606890F8008048EA2E
:10243000092005B2AB20616808704FF400203D49C7
:1024400088612289E368D4E90001FEF7DCFF0020FF
:10245000616808702289E368D4E90001FEF7C2FED2
:10246000082034498861606890F800B0AA2061684B
:1024700008704FF400202F4988612289E368D4E96D
:102480000001FEF7C0FF0020616808702289E36840
:10249000D4E90001FEF7A6FE08202649886160689D
:1024A00090F800A04AEA0B2006B2B6F5FA7F06DDE6
:1024B0002148017821480078FDF7F2FF05E01E4829
:1024C00001781F480078FDF7EBFF16F5FA7F06DA72
:1024D0001C48017819480078FDF7E2FF05E019482B
:1024E000017817480078FDF7DBFFB5F5FA7F06DDC8
:1024F0001548017811480078FDF7D2FF05E0124831
:1025000001780F480078FDF7CBFF15F5FA7F06DA62
:102510000E48017809480078FDF7C2FF05E00B4836
:10252000017807480078FDF7BBFF00F03BFB3AE776
:1025300018000020001002400F0000200C000020B6
:102540000D00002011000020100000200E000020CF
:102550002DE9F84F04460D4690461E46DDF82890BA
:10256000FEF76EF9A0EB0900371AFEF769F982460B
:102570002C480068C0F3CB307843009045E0701CD5
:10258000002842D0FEF75CF9A0EB0A00B84200D266
:10259000A7BB2068406820F0E000216848606068C0
:1025A000B0F5827F0DD1A068B0F5004F03D0A068D0
:1025B000B0F5806F05D12068006820F040002168E8
:1025C0000860A06AB0F5005F0DD100BF2068006808
:1025D00020F40050216808602068006840F4005032
:1025E0002168086000BF012084F8510000BF00206E
:1025F00084F8500000BF0320BDE8F88FFFE7009883
:1026000000B900270098401E00902068806828408C
:10261000A84201D1012000E000204045AFD10020B8
:10262000EAE700005800002070B5002000220223D5
:1026300000240221274D2D6805F00C0020B104284C
:1026400006D0082834D107E0234D244E356033E00E
:10265000234D224E35602FE01E4D2D1F2D68C5F3F2
:1026600080541C4D2D1F2D6805F03F0154B11C4DA9
:10267000B5FBF1F5174E361F3668C6F3881605FB15
:1026800006F209E0144DB5FBF1F5124E361F36681F
:10269000C6F3881605FB06F20E4D2D1F2D68C5F3F7
:1026A00001456D1C6B00B2FBF3F50C4E356003E089
:1026B000094D0A4E356000BF00BF064D2D68C5F3B9
:1026C0000315084E705D054D2D68C540034E3560FD
:1026D00070BD0000083802400024F40058000020BB
:1026E00040787D01DE3E00084048006840F47000FC
:1026F0003E49086000203E4908603D4808380068AF
:1027000047F6C07188433A490839086008460068AE
:1027100000F5A84008600846006820F440300860D2
:102720000846006800F5803008600846006820F020
:102730003F0008600846006808300860081F00680D
:1027400040F48030091F086000BF29480C38006839
:1027500000F400300028F8D025483430006840F0FC
:1027600080502349343108602248006840F480409A
:10277000204908601E48083800681D49083908606B
:10278000081F006840F08070091F086000BF1848EB
:102790000C38006800F000700028F8D040F20560A6
:1027A000154908601248001F006820F00300104916
:1027B000091F08600846006840F00200086000BF7A
:1027C0000B48001F006800F00C000828F8D10848EA
:1027D000001F006840F400400549091F08600846D2
:1027E000006840F4A05008607047000088ED00E0E9
:1027F0000C38024000700040003C024010B5002A36
:1028000006DA22F00042D21D22F00703102203E074
:10281000D21C22F003030C2213B19C188C4201D964
:10282000012010BD024401448360C0E90021C91A9F
:10283000D018884202D810600246F9E700201060E4
:1028400010BD000005490978002905D000684FF641
:10285000FF71DFF80CC000DF704700005D00002052
:102860006933000804490978002903D00068DFF8BB
:102870000CC000DF704700005D00002091320008AE
:1028800008480068C0010BD507480068C00707D09A
:10289000054880380068002802DA044901200870E1
:1028A00070470000FCED00E0800E00E0800000209A
:1028B0004FF06042D36F002BFCD0036BD367D36F14
:1028C000002BFCD0C07840EA0120A2F87C007047C1
:1028D0004FF06041CA6F002AFCD081F87C0070473D
:1028E0000EB5802200B109B110460AE00178012935
:1028F000FAD101A900F046F8042801D0002000E038
:102900001020DDE9011203B000BD70B50D460400D2
:1029100003D012B92078012801D0802070BD204654
:1029200000F0B0FB28B12946204600F054F8002002
:1029300070BD812070BD70B50C4600F06DFF4FF08A
:10294000004108B1220C01D0084670BD058BC1784A
:10295000A0B200F003F8284670BD00000A46014608
:10296000074810B500EB820050F8040C002805D091
:1029700000F07CFDBDE8104000F068BD10BD000017
:10298000F409002010B504468089002822D060890F
:1029900004EB8000006908606078022805D10021FE
:1029A000204600F063FD00F051FD04F10C0000BF73
:1029B000D0E85F1F491E8AB2C0E8512F0029F7D125
:1029C0006089401C80B26081E189884201D1002089
:1029D0006081042010BD10B500F048FDBDE8104036
:1029E00000F034BDFFF720FE144815490860154873
:1029F0004860012008814FF47A70C860124813497A
:102A000008601348486000F031F8FFF739FC0C48C3
:102A10000FC8FFF797FB0D4803C8FFF79DFA08485A
:102A2000FFF786FAFFF748FAFFF75AFA0748FFF769
:102A30006BFA00F02DF800BFFEE7000084000020D4
:102A40007801002000000020DC00002004000020AD
:102A500030010020EFF3058109B182207047DFF8D3
:102A600008C000DF70470000213B0008EFF305803D
:102A700008B182207047EFF31480C00703D0DFF85D
:102A80000CC000DF704701F055B80000353B00086E
:102A900088B0EFF3058010B1822008B07047EFF3E3
:102AA000148010F00301134806D001291BD002291D
:102AB00011D0032919D113E008A981F309880078FE
:102AC000C0070BD05FF0020080F31488BFF34F8F74
:102AD000BFF36F8F09E00078C00706D10320F3E74A
:102AE0000078C00701D0FF20D7E7DFF80CC000DF77
:102AF000D3E70000A03E0008A53B0008EFF30582E5
:102B00000AB1FFF7EDBEDFF808C000DF7047000034
:102B1000113C0008EFF3058212B14FF000407047FE
:102B2000DFF804C000DF70474B3C0008EFF305827C
:102B30000AB1FFF700BFDFF808C000DF70470000F0
:102B40006F3C0008EFF305830BB182207047DFF87C
:102B500008C000DF70470000953C0008EFF30582D5
:102B60000AB100207047EFF31482064B02F0010215
:102B70005B781A4303D0DFF810C000DF704701F024
:102B8000B3B800005C000020E93C0008DFF80CC08E
:102B900000DFDFF80CC000DFFEE70000593D000851
:102BA000753D0008EFF3058008B182207047DFF81B
:102BB00008C000DF70470000AD3D0008DFF804C02A
:102BC00000DF7047B73D0008094C4FF0FF3529463C
:102BD0002068FFF793FF02460846102AF7D1FFF757
:102BE000EDFF0028F3D0024608469047EFE70000CB
:102BF0002C000020012806D0022805D0032804D08C
:102C0000042804D102E003E002E001E000E000BF9C
:102C100000BF00BFFEE700BFFEE7000007480168F5
:102C20004FF0E020416100218161072101610448EA
:102C3000016841F07F410160401770479C3E0008E9
:102C400020ED00E0704750E8001F31B10B6840E80C
:102C50000032002AF7D108467047BFF32F8FFAE7FA
:102C600010B568B161B10B3121F00302016844680D
:102C70000B1A1B1B934205D2084609680029F5D19F
:102C8000002010BD210007D021180368C1E90032DF
:102C9000016001F1080010BD4260083010BD000065
:102CA00070B50D46002812D04FF6FF71084C8842CF
:102CB00004D222680146104600F006FC20684570E8
:102CC000044800F037F9BDE8704000F0CFBC70BD9B
:102CD00064000020840D00200F4810B50D494268A3
:102CE0000E480B680068934204D00A60CB88421EED
:102CF0001A448A808A8880B282420AD10020086001
:102D0000054800F017F90146BDE81040024800F000
:102D1000FFBB10BD78000020840D0020740000204F
:102D200070B5194DE86800282CD0A88A401EA882EA
:102D3000002621E0A06838B161684160606810B188
:102D4000A16881606660A6600F482146183800F0CF
:102D5000DFFBA08AA8826078042804D10B49E08AAE
:102D600009880844A08201206070E068E860E0689B
:102D700008B10561E6602661A88A002802D1EC68E6
:102D8000002CD7D170BD00009C0D002074000020E5
:102D900070B504000FD00D4DA17801262868827807
:102DA00091420CD900F0D0FB286846702046BDE85F
:102DB000704000F05BBC064800F0BCF8F7E76670B6
:102DC0002146BDE87040024800F0A2BB640000202C
:102DD000840D00200321FFF763BF0000054A02EBCA
:102DE000810151F8041C002902D00A8B82430A8316
:102DF00070470000F409002010B50446008B08431A
:102E000020836278618B062A18D0052A19D10842DE
:102E100017D001EA0002628388432083204600F035
:102E2000CDFB01206070628B0821204600F0BEFBC4
:102E30002146BDE81040034800F06ABB31EA0002B9
:102E4000EAD010BD840D00200246154810B500EBF5
:102E5000810050F8044C002C21D0208B104320839B
:102E60006278618B062A17D0052A18D1084216D03D
:102E700001EA0002628388432083204600F09EFB23
:102E800001206070628B0821204600F08FFB2046F5
:102E9000BDE81040FFF77CBF31EA0002EBD010BD67
:102EA000F409002070B503460C480D460468208BD9
:102EB00042B133EA000101D0062109E098432083A2
:102EC000022070BD10EA030101D06183F6E70521FD
:102ED00063832846FFF7E4FE012070BD64000020F4
:102EE000814202D342688A4201D8012070470268B9
:102EF0000A60BFF35F8F50E8003F0A689A42F6D13C
:102F000040E80012002AF2D10020704768B161B198
:102F10000022083902E00246006830B18842FAD146
:102F20002AB100681060002070470120704700211E
:102F30004160F8E70146406842684A600B78002229
:102F4000022B05D0012B03D0032B01D04260704728
:102F500043680BB199604260826070470649074B35
:102F600048681B6882789B789A4202D142684A601E
:102F70007047002070470000840D0020640000208E
:102F8000810700D00020704770B504460020154628
:102F9000207001226270A17084F824106060A0602B
:102FA000E06020612062A082E0822083608384F858
:102FB0002500E08C18B90548FFF745FEE062294678
:102FC0002046BDE8704000F01DB80000000300205E
:102FD00008B1082901D2012070470144091F0022CD
:102FE00001600A60426010467047000003480021FB
:102FF000016003490988C180704700007800002003
:10300000903E000870B5C28C1C4D930802D12A88EE
:10301000C2F38D03C26A02EB8302540700D5121F6C
:103020004FF0807442E9021400242646B2F14002B7
:1030300042F82460641C0E2CFAD3C46914628262C4
:1030400001632968C90014D5112B12D94FF0FF3143
:10305000103B11EB53014FF0CC3305D042F8043C48
:1030600042F8083D491EF9D1C16A121F8A4200D9AF
:103070001360C06A0249016070BD00008C3E000808
:10308000A52E5AE2C1898089081A70470122027070
:103090000022427082704260028142811039828136
:1030A0008908C181704700002DE9F041044640685D
:1030B0000E464FF0000804F10C05E8B360780127D4
:1030C00001283ED0022813D003285CD10846FFF720
:1030D000BAFD050057D02046FFF72CFF04462946CD
:1030E00000F05EFA6770204600F068FA214621E0A1
:1030F0002046FFF71FFF0646002100F051FA218904
:10310000F06904EB81010861D5E85F0F401C81B2D2
:10311000C5E8501F0028F7D12089401C80B22081CB
:10312000E189884201D1A4F808807770304600F028
:1031300045FA3146174800E00CE0BDE8F04100F0E8
:10314000E7B92046FFF7F6FE04463246102100F0AC
:103150002DFAC7E7A089E189884216D2208904EBBD
:1031600080000661D5E85F0F401C81B2C5E8501FA2
:103170000028F7D12089401C80B22081E189884253
:1031800001D1A4F80880BDE8F081BDE8F04103203A
:10319000FFF730BD840D002070B5044680891546C8
:1031A0000026C0B3608904EB800000690860608974
:1031B000401C80B26081E189884200D166816068EC
:1031C00010B1607802280BD014F10C04D4E85F0F22
:1031D000401E81B2C4E8501F0028F7D1002070BD06
:1031E0002046FFF7A7FE0546002100F0D9F9218906
:1031F000E86904EB810108612089401C80B22081CC
:10320000E189884200D12681284600F0D7F9284676
:10321000FFF7BEFDE2E7FFE73DB10B4862680168DA
:103220002AB1204600F074F908E0012070BD616009
:1032300001684E60006884600120607008212846A3
:10324000FFF72EFDF1E7000064000020002814D0F5
:10325000411C13D00C4A4FF6FE7190420CD800EB83
:103260004002C2EBC0120948036803EBC202521EBF
:10327000B2FBF3F0884204D9084670474FF6FF705E
:10328000704780B27047000000093D00AC3E000866
:103290002DE9F0410446408820B1314DA1682A68EB
:1032A000914202D0FF20BDE8F081401E0004000CD6
:1032B000608053D12968086AA04209D1E068086299
:1032C00008E0C268A24202D1E268C26002E0104691
:1032D0000028F6D191F824000A6A06E053681BB171
:1032E0009B78834200D91846D268002AF6D18870AC
:1032F000DFF870806168012611B32046FFF71AFEDF
:103300000746002100F04CF9384600F057F9668076
:10331000A760386AE0603C622968D8F804008A78BF
:103320008078824201D3384616E00E4800F0F0F86B
:1033300039460C4800F0ECF8286846707E700AE0C8
:10334000D8F804108A782968824207D9054800F025
:10335000DFF8286846700020FFF71AFD0020A2E77A
:1033600064000020840D002070B5184D0E46044600
:103370004188286839B1A168814209D16088401C20
:103380006080002070BDA060016AE1600462F5E722
:1033900076B18A788078824203D28870A06800F083
:1033A000DDF8606830B12046296800F0B1F808E027
:1033B000012070BD28686060296800204860286886
:1033C000846009213046FFF76BFCF1E764000020C0
:1033D00070B51B48012102685170006800F0B4F814
:1033E000184D6C7818E000BF05EBC40148680278FE
:1033F000EAB1012A20D000F00DF9E878641C84427B
:1034000000D100240F48801CD0E84F1F491EC9B2CC
:10341000C0E8421F002AF7D1A8780028E4D16C70D8
:103420000948FFF787FDBDE8704000F01FB9098922
:1034300089B2FFF7E1FCE0E78968FFF735FEDCE7DA
:103440006400002070090020840D002005480178E8
:1034500011B101214170704703494FF0805008605D
:10346000704700006C00002004ED00E0F0B4154D42
:10347000AB1CEE784FEA0507D3E84F2FB24202D1DA
:10348000BFF32F8F11E0521CD4B2C3E8424F002A81
:10349000F2D100BFD7E84F2F541CB44200D1002412
:1034A000E4B2C7E8434F002BF4D1EB78934205D93F
:1034B00005EBC202C2E90101F0BC7047F0BC02207A
:1034C000FFF798BB70090020104A10B5D368ABB164
:1034D00013469B8A03E08CB12246A48A2344D46815
:1034E0008B42F8D3C460D0600261C46804B120612B
:1034F000591A8182908A401A908210BD0024C460BB
:10350000D060C91A02619182848210BD9C0D002096
:1035100030B502780023022A03D0012A01D0032A01
:1035200000D101238C7800E01046426812B19578F2
:10353000A542F9D24A6041601BB102B19160886036
:1035400030BD0020FBE7000003494A6842600022CA
:103550008260486070470000840D002010B58368C9
:1035600004462BB9607801280ED1084B03E09B6814
:1035700018780028FBD0204600F034F82146BDE83A
:1035800010401846FFF7C4BF10BD0000840D002096
:1035900090F82510806A09B160307047203070477C
:1035A00010B50C46FFF7F4FF046010BD70B515466A
:1035B0000C46FFF7EDFFC0E9004570BD10B501698D
:1035C00000290ED0C268CA60C36800223BB18B8A52
:1035D000848A23448B82C3681961C26000E08A82B6
:1035E000026110BD816839B142684A6041680029B2
:1035F00001D0806888607047054906E04A688242C9
:1036000002D140684860704711460029F6D17047E2
:10361000840D002010B5416881B1FFF78BFC044692
:10362000FFF7CCFF0120607001462046FFF7B8FF8E
:103630002146BDE810400348FFF76ABF4188491C96
:10364000418010BD840D002006480068D0E90A10B2
:10365000814203D300680449884202D00120FFF769
:10366000C9BA704764000020A52E5AE20749022219
:1036700048604270064A1278002A05D006C98A427C
:1036800002D0C078FFF724B9704700006400002022
:103690008000002070B5FFF7F3F800200446204AB0
:1036A000204902E042F82040401C0B889842F9D3A0
:1036B0001D48342201881D48FFF7A0F81C480088E7
:1036C00080B240F000421B4801681B48FFF796F8A3
:1036D0001A48082201881A480068FFF78FF8194D28
:1036E000FF20194AE870EC8400212846FFF74CFCC3
:1036F000164804210170446015480170C4600461DB
:1037000084821448154905600220687012480470CC
:1037100044700978C170BDE87040FFF767BC0000D5
:10372000F4090020883E0008B43E0008880100200B
:103730008C3E0008B83E000800030020DC3E000874
:1037400034000020500D0020172C0008840D0020AC
:103750009C0D00206400002070090020C03E00087D
:103760001B4810B5016841F47F01016000684FF00B
:103770007F4101EA00201649C0431439B0FA80F0B5
:103780000968C0F10800C1F30221814200D3481C3E
:103790000F49091F0B686FF08072824063F31702B4
:1037A0000A60FFF73BFA0B49002808600EDB00F1C6
:1037B000E021FF2281F8002400F01F020121914046
:1037C0004009800000F1E020C0F8001110BD0000A9
:1037D00020ED00E0700000200C4810B502680121C7
:1037E00051700068FFF7B0FEFFF776FA08480168ED
:1037F000491C0160FFF794FA00F0EAFA0548FFF768
:1038000099FBBDE81040FFF731BF000064000020C5
:1038100074000020840D0020002805D0810702D10B
:103820000178002900D000207047000030B50B4C13
:103830000023626805E095688D4204D8134612683B
:10384000491B002AF7D10260816012B19568691A9C
:1038500091600BB1186030BD606030BD5C0000202D
:103860002DE9F0411E46174680460D4611F0FF0F28
:1038700000D14D1C1848FFF7E6F9041E16D0280A9F
:10388000E762E084E9B242462046E661FFF77CFB4E
:1038900001251248124905E000EB850252F8042C7C
:1038A00032B16D1C0A889542F6D90020BDE8F0813E
:1038B000002DFAD000EB850040F8044C0948E57073
:1038C000007818B101212046FEF7F2FF2046FFF7ED
:1038D0005FFA2846EAE7000088010020F40900208A
:1038E000883E0008800000202DE9F05F584DDFF889
:1038F0005891DFF8588129684FF0010A002618B165
:10390000CA78AB46824243D14E70FCF7A2FC2968CC
:103910008862FFF799FE2868046A1FE06068C0B1FA
:103920002046FFF707FB07460021FFF739FE384620
:10393000FFF744FE87F801A039464648FFF7E8FD47
:10394000E168A4F802A0A760386AE0603C620C4617
:1039500004E0E0686680A660E6600446002CDDD1E5
:103960002868C27808EB820141F8046CC16A3A48C1
:10397000FFF7B6FA2868C66299F8001011B1002165
:10398000FEF796FF35482968FFF7AAFA2E6056E041
:103990003349098888420CD808EB800858F8045C41
:1039A0003DB12846FFF71EFE2846FFF707FE2C6AAA
:1039B00022E0FF20BDE8F09F6068C0B12046FFF71D
:1039C000B9FA07460021FFF7EBFD3846FFF7F6FD91
:1039D00087F801A039461F48FFF79AFDE168A4F86F
:1039E00002A0A760386AE0603C620C4604E0E06830
:1039F0006680A660E6600446002CDDD148F8046CC1
:103A00001548E96AFFF76CFAEE6299F8000018B100
:103A100000212846FEF74CFF29461048FFF760FAC0
:103A20000C48DBF8001040688B7882789A4209D9FC
:103A300081F801A00748DBF80010FFF769FD0020BE
:103A4000FFF7A6F90020B5E780000020F409002068
:103A500064000020840D0020000300208801002065
:103A6000883E000870B5FFF779FA04000CD0074DC6
:103A700007482968FFF74CFD296801204870204657
:103A8000BDE87040FFF7F2BD70BD0000640000208B
:103A9000840D002070B51A4D80B11A4A12889042E8
:103AA0001FD8194A02EB800050F8044CCCB1A17029
:103AB00084F824102868A04205D014E0286881709A
:103AC000286880F82410114840688078884215D909
:103AD0000E482968FFF71CFD296801204870002066
:103AE0000AE0FF2070BD2046FFF738FD607801280E
:103AF00004D10648FFF71EFAFFF74AF9002070BD0F
:103B000064000020883E0008F4090020840D002095
:103B100002480068002800D0C07870476400002088
:103B200010B5002804D0FFF791FBFFF753F94020B0
:103B300010BD000010B5134C207860B91248400742
:103B400005D1124801681048FFF742FA08B18520F4
:103B500010BDFFF79FFD0E49FF200968887020788F
:103B600058B900210B4800F041F80B4908600021CA
:103B70000A4800F0B9F80A490860012020700020C6
:103B8000607010BD5C000020C0070020BC3E000833
:103B900064000020D43E00082C000020C43E000831
:103BA0002800002070B50F4D687808B1002070BD66
:103BB0000D4C206890F824100020FFF76BFF206860
:103BC000C178FF2903D1816A203181F309886168B6
:103BD00011B9606000202060FFF7C2FD012068700D
:103BE000E4E700005C0000206400002010B5040041
:103BF00005D0216819B1606808B102780AB10020C7
:103C000010BD8900103189B2FFF740FA606810BD1D
:103C10003EB504000D464FF0800012D021780129F6
:103C20000FD12846FFF712FB0246204601A9FFF7F5
:103C3000B3FA012801D0102003E00DB1402000E0CC
:103C40000020DDE9011203B030BD70B50C46FFF76E
:103C5000E3FD4FF0004108B1220C01D0084670BDD1
:103C6000058BC178A0B2FFF7B9F8284670BD70B5D2
:103C70000C46FFF7D1FD4FF0004108B1220C01D0F6
:103C8000084670BD058BC178A0B2FFF7DDF8284665
:103C900070BD000070B504460D46000C01D08620B2
:103CA0001EE008462CB1FFF7D1FA0146A0B201226E
:103CB00005E0FFF7CBFA014600224FF6FF70FFF751
:103CC000F1F8022802D04DB1402008E008200CB1E4
:103CD000214605E003490968498B01E000200021E5
:103CE000324670BD6400002070B50E4604002BD033
:103CF000206848B3B4F9040010F1030F24DB032853
:103D000022DCE16829B11148FEF7AAFF05001BD0AB
:103D100000E00025B4F90400E168001D40EA01213B
:103D200033462A462068FFF79BFD40B1084901EB66
:103D30008000084950F8040C826A516370BD1DB1BF
:103D400029460248FFF7E2F8002070BDC0070020B6
:103D5000F40900208D2B000810B5FFF7D9FE0028CC
:103D600004D0034901EB800050F8040C10BD0000A2
:103D7000F409002010B5FFF74FFD18B1C18C19B13F
:103D8000C46A02E0802010BD0024C078FFF7ACFDBB
:103D9000FF2806D01CB121460348FFF7B7F80020E2
:103DA00010BD812010BD0000C007002010B5FFF736
:103DB00059FE002010BD10B5FFF7E2F820B14169AF
:103DC0000A680169104610BD0020014610BD0000C0
:103DD0002DE9F041134E7468002C1CD0A068124FDE
:103DE000401E4FF00108A06012E025462468746070
:103DF000002229463868FEF788FD10B10420FEF73E
:103E0000F9FE6879012808D085F80480002C02D0DA
:103E1000A0680028E9D0BDE8F0812846E968FFF7EE
:103E200005FDF3E75C0000202C0000204FF04070FF
:103E3000E1EE100A70470000952300080000000022
:103E40000100000000000000C104000800000000A4
:103E500001000000000000003D0500080000000017
:103E60000100000000000000C11800080000000070
:103E70000100000000000000FF7F0000FF7F000045
:103E8000FF7F0000FF7F000007000000C800020164
:103E900005000100007A030AA80000003F9002001C
:103EA000010000000200010050000400E8030000CF
:103EB0000000000078010000C0040000B001000014
:103EC00010000000C92B00080200000001000000E3
:103ED000C800000004000000100A002000000000DC
:103EE00000000000000001020304060708090000AA
:103EF0000000010203040000183F00080000002039
:103F000084000000C40100089C3F000884000020D9
:103F100094130000E0010008000000000000000011
:103F20000000000001000C0D0E0F0000000000005A
:103F30000000000000000000000000000000000081
:103F40000000000000000000000000000000000071
:103F500000000000E529000800000000010000004A
:103F6000C800000000000000100000000100000078
:103F70000024F40000000000000000000000000029
:103F80000000000000000000000000000000000031
:0C3F900000000000000000000000000025
:04000005080003E507
:00000001FF
